:020000040000FA
:100000000C945E000C9486000C9486000C94860080
:100010000C9486000C9486000C9486000C94860048
:100020000C9486000C9486000C9486000C94860038
:100030000C9486000C9486000C9486000C94860028
:100040000C9453020C9486000C94C3020C949D02F1
:100050000C9486000C9486000C9486000C94860008
:100060000C9486000C948600000000080002010039
:100070000003040700000000000000000000000072
:10008000250028002B0000000000240027002A0083
:10009000040404040404040402020202020203032E
:1000A0000303030301020408102040800102040836
:1000B0001020010204081020F502B40411241FBE10
:1000C000CFEFD8E0DEBFCDBF21E0A4E2B1E001C0B8
:1000D0001D92A43DB207E1F711E0A0E0B1E0ECE130
:1000E000FEE002C005900D92A432B107D9F710E0EE
:1000F000CDE5D0E004C02197FE010E940005CC357B
:10010000D107C9F70E9430030C9401070C9400003A
:1001100090E0FC01EC55FF4F249180579F4FFC016C
:100120008491882399F090E0880F991FFC01EA5789
:10013000FF4FA591B491FC01E458FF4F8591949134
:100140008FB7F894EC91E22BEC938FBF089590E079
:10015000FC01E859FF4F2491FC01EC55FF4F34910D
:10016000FC01E057FF4FE491EE23C9F0222339F060
:10017000233001F1A8F4213019F1223029F1F0E007
:10018000EE0FFF1FE458FF4FA591B4918FB7F8947D
:10019000EC91611126C030953E233C938FBF0895AA
:1001A0002730A9F02830C9F0243049F78091800029
:1001B0008F7D03C0809180008F7780938000DFCF98
:1001C00084B58F7784BDDBCF84B58F7DFBCF8091E5
:1001D000B0008F778093B000D2CF8091B0008F7D38
:1001E000F9CF3E2BDACFAF92BF92CF92DF92EF9250
:1001F000FF920F931F93CF93DF936C017B018B01D1
:10020000040F151FEB015E01AE18BF08C017D10720
:1002100059F06991D601ED91FC910190F081E02DAA
:10022000C6010995892B79F7C501DF91CF911F91FF
:100230000F91FF90EF90DF90CF90BF90AF90089517
:10024000FC01538D448D252F30E0842F90E0821BDC
:10025000930B541710F0CF96089501970895FC0161
:10026000918D828D981761F0A28DAE0FBF2FB11DB9
:100270005D968C91928D9F5F9F73928F90E0089511
:100280008FEF9FEF0895FC01918D828D981731F0CB
:10029000828DE80FF11D858D90E008958FEF9FEF1F
:1002A0000895FC01918D228D892F90E0805C9F4FF5
:1002B000821B91098F73992708958DE291E00E9426
:1002C000510121E0892B09F420E0822F089580E07C
:1002D00090E0892B29F00E945D0181110C940000AF
:1002E0000895FC01A48DA80FB92FB11DA35ABF4FCB
:1002F0002C91848D90E001968F739927848FA68925
:10030000B7892C93A089B1898C91837080648C9378
:10031000938D848D981306C00288F389E02D808127
:100320008F7D80830895EF92FF920F931F93CF9359
:10033000DF93EC0181E0888F9B8D8C8D98131AC020
:10034000E889F989808185FF15C09FB7F894EE8907
:10035000FF896083E889F989808183708064808364
:100360009FBF81E090E0DF91CF911F910F91FF90AF
:10037000EF900895F62E0B8D10E00F5F1F4F0F7357
:100380001127E02E8C8D8E110CC00FB607FCFACF12
:10039000E889F989808185FFF5CFCE010E9471013E
:1003A000F1CFEB8DEC0FFD2FF11DE35AFF4FF082E3
:1003B0009FB7F8940B8FEA89FB8980818062CFCF49
:1003C000CF93DF93EC01888D8823B9F0AA89BB898C
:1003D000E889F9898C9185FD03C0808186FD0DC077
:1003E0000FB607FCF7CF8C9185FFF2CF808185FF98
:1003F000EDCFCE010E947101E9CFDF91CF91089539
:100400000F931F93CF93DF93EC018881998100971D
:1004100059F02A813B812617370730F081E0DF91C0
:10042000CF911F910F9108958B016F5F7F4F0E94B5
:100430002B06009759F0998388831B830A832C81AC
:100440003D81232B59F7FC011082E8CF80E0E7CFF4
:10045000EF92FF920F931F93CF93DF93EC017B01F9
:100460008A01BA010E94000228813981811114C0D9
:100470002115310519F0C9010E94A20519821882BF
:100480001D821C821B821A82CE01DF91CF911F91A7
:100490000F91FF90EF9008951D830C83B701C90160
:1004A0000E94FA06F1CF1F920F920FB60F921124FD
:1004B0002F933F938F939F93AF93BF938091290185
:1004C00090912A01A0912B01B0912C01309128012B
:1004D00023E0230F2D3758F50196A11DB11D209360
:1004E00028018093290190932A01A0932B01B093B6
:1004F0002C018091240190912501A0912601B091B9
:1005000027010196A11DB11D80932401909325011F
:10051000A0932601B0932701BF91AF919F918F9136
:100520003F912F910F900FBE0F901F90189526E8C6
:10053000230F0296A11DB11DD2CF1F920F920FB6AD
:100540000F9211242F933F934F935F936F937F9359
:100550008F939F93AF93BF93EF93FF938DE291E0BF
:100560000E947101FF91EF91BF91AF919F918F9187
:100570007F916F915F914F913F912F910F900FBE9F
:100580000F901F9018951F920F920FB60F92112483
:100590002F938F939F93EF93FF93E0913D01F09101
:1005A0003E018081E0914301F091440182FD1BC036
:1005B0009081809146018F5F8F7320914701821750
:1005C00041F0E0914601F0E0E35DFE4F958F8093AE
:1005D0004601FF91EF919F918F912F910F900FBE48
:1005E0000F901F9018958081F4CFEDE2F1E0138217
:1005F000128288EE93E0A0E0B0E084839583A68326
:10060000B7838AE091E09183808385EC90E09587C1
:10061000848784EC90E09787868780EC90E0918BCC
:10062000808B81EC90E0938B828B82EC90E0958BB9
:10063000848B86EC90E0978B868B118E128E138EB6
:10064000148EEAECF1E0118210821382128215827C
:10065000148250E040E062E271E0CF010C94280285
:10066000CF93DF9300D000D000D0CDB7DEB7789421
:1006700084B5826084BD84B5816084BD85B58260A7
:1006800085BD85B5816085BD80916E008160809358
:100690006E001092810080918100826080938100C1
:1006A00080918100816080938100809180008160D1
:1006B000809380008091B10084608093B10080912C
:1006C000B00081608093B00080917A008460809354
:1006D0007A0080917A00826080937A0080917A001B
:1006E000816080937A0080917A00806880937A009C
:1006F0001092C1008CE00E9488008DE00E9488006A
:1007000060E08CE00E94A70060E08DE00E94A700FE
:10071000E0913D01F0913E0182E08083E09139015A
:10072000F0913A011082E0913B01F0913C018FEC95
:10073000808310924501E0914101F091420186E0F1
:100740008083E0913F01F09140018081806180834E
:10075000E0913F01F0914001808188608083E091C9
:100760003F01F0914001808180688083E0913F01EA
:10077000F091400180818F7D808380E0A82E80E011
:10078000B82E8DE291E00E945101181619060CF066
:10079000DFC08DE291E00E942F018A3009F0ADC0E8
:1007A000C090CA01D090CB01C114D10449F000918E
:1007B000CE011091CF0176010115110509F040C05D
:1007C0001A8219821C821B821E821D826091CA01BC
:1007D0007091CB016115710541F04091CE015091AE
:1007E000CF01CE0101960E942802ED80FE80E11427
:1007F000F104B1F009811A8168E171E0C8010E9439
:10080000F10661E0892B49F06AE171E0C8010E94BC
:10081000F106892B09F050C060E08CE00E94A7002F
:1008200089819A81009711F00E94A20550E040E072
:1008300062E271E08AEC91E00E942802A2CF74018A
:1008400047018FEF881A980AF7018081082E000C63
:10085000990B0E94BD04892B91F7015011090C0DD1
:100860001D1DF8018081082E000C990B0E94BD040B
:10087000892B31F00E151F0518F001501109F1CF29
:10088000A8014F5F5F4F4E195F095093CF0140930E
:10089000CE01CE14DF0420F4B701C6010E94E806A1
:1008A000E091CA01F091CB018091CE019091CF01EE
:1008B000E80FF91F108284CF6CE171E0C8010E943B
:1008C000F10661E0892B41F06EE171E0C8010E9400
:1008D000F106892B19F460E08DE0A0CFA701B801E3
:1008E0008DE291E00E94F30042E050E060E271E0AE
:1008F0008DE291E00E94F30093CF8D3009F441CF57
:100900000091CE011091CF010034110508F039CFCC
:1009100089831A820F5F1F4FB8018AEC91E00E9411
:100920000002882309F42DCF2091CA013091CB0118
:100930008091CE019091CF01BE016F5F7F4F820FFA
:10094000931F0E94FA061093CF010093CE0119CF96
:10095000A114B10409F415CF0E945D01882309F4A4
:1009600010CF0E9400000DCF8091CA019091CB0161
:10097000009711F00C94A205089591110C94C604EF
:10098000803219F089508550C8F708959927882733
:1009900008952F923F924F925F926F927F928F9223
:1009A0009F92AF92BF92CF92DF92EF92FF920F93FE
:1009B0001F93CF93DF93CDB7DEB7CA1BDB0B0FB608
:1009C000F894DEBF0FBECDBF09942A8839884888C5
:1009D0005F846E847D848C849B84AA84B984C8845B
:1009E000DF80EE80FD800C811B81AA81B981CE0F52
:1009F000D11D0FB6F894DEBF0FBECDBFED01089537
:100A0000EE0FFF1F0590F491E02D09940F931F93B3
:100A1000CF93DF938230910510F482E090E0E09173
:100A2000D201F091D30130E020E0B0E0A0E03097B7
:100A300099F42115310509F44AC0281B390B2430DB
:100A40003105D8F58A819B816115710589F1FB011A
:100A500093838283FE0111C0408151810281138101
:100A600048175907E0F04817590799F4109761F0B3
:100A700012960C93129713961C933296CF01DF9126
:100A8000CF911F910F9108950093D2011093D3013C
:100A9000F4CF2115310551F04217530738F0A90161
:100AA000DB019A01BD01DF01F801C1CFEF01F9CFF0
:100AB0009093D3018093D201CDCFFE01E20FF31FBB
:100AC000819391932250310939832883D7CF209184
:100AD000D0013091D101232B41F4209102013091BA
:100AE00003013093D1012093D00120910001309176
:100AF00001012115310541F42DB73EB740910401A4
:100B000050910501241B350BE091D001F091D101EA
:100B1000E217F307A0F42E1B3F0B2817390778F0D4
:100B2000AC014E5F5F4F2417350748F04E0F5F1F33
:100B30005093D1014093D001819391939FCFF0E0E6
:100B4000E0E09CCFCF93DF930097E9F0FC01329770
:100B500013821282A091D201B091D301ED0130E055
:100B600020E01097A1F420813181820F931F209102
:100B7000D0013091D1012817390709F061C0F093F5
:100B8000D101E093D001DF91CF910895EA01CE1712
:100B9000DF07E8F54A815B819E0141155105B1F7F8
:100BA000E901FB83EA8349915991C40FD51FEC17E2
:100BB000FD0761F4808191810296840F951FE90100
:100BC00099838883828193819B838A83F0E0E0E02C
:100BD00012968D919C9113970097B9F52D913C91A8
:100BE0001197CD010296820F931F2091D001309171
:100BF000D1012817390739F6309751F51092D301F2
:100C00001092D201B093D101A093D001BCCFD38375
:100C1000C28340815181840F951FC817D90761F4A1
:100C20004E5F5F4F88819981480F591F51834083E0
:100C30008A819B81938382832115310509F0B0CF8E
:100C4000F093D301E093D2019ECFFD01DC01C0CF30
:100C500013821282D7CFB0E0A0E0E1E3F6E00C947B
:100C6000CB048C01009751F4CB010E9406058C0146
:100C7000C801CDB7DEB7E0E10C94E704FC01E60F54
:100C8000F71F9C0122503109E217F30708F49DC0B9
:100C9000D901CD91DC911197C617D70798F0C530CF
:100CA000D10530F3CE0104978617970708F3C61BCA
:100CB000D70B2297C193D1936D937C93CF010E9460
:100CC000A205D6CF5B01AC1ABD0A4C018C0E9D1E4D
:100CD000A091D201B091D301512C412CF12CE12CE7
:100CE000109731F58091D0019091D1018815990527
:100CF00009F05CC04616570608F058C08091000104
:100D000090910101009741F48DB79EB74091040185
:100D100050910501841B950BE817F90708F055C0A1
:100D2000F093D101E093D001F90171836083A0CFEA
:100D30008D919C91119712966C90129713967C90BE
:100D40001397A815B90559F56C0142E0C40ED11CE2
:100D5000CA14DB0420F1AC014A195B09DA011296CE
:100D6000159780F06282738251834083D9016D931D
:100D70007C93E114F10471F0D7011396FC93EE9388
:100D8000129776CF22968C0F9D1FF9019183808355
:100D9000F301EFCFF093D301E093D20169CF48166E
:100DA000590608F42C017D01D3019ACFCB010E9492
:100DB00006057C01009749F0AE01B8010E94E806E3
:100DC000C8010E94A205870153CF10E000E050CF78
:100DD000FB01DC0102C001900D9241505040D8F758
:100DE0000895FB01DC018D91019080190110D9F368
:100DF000990B0895FB01DC0101900D920020E1F7B1
:100E0000089510E0CDE5D0E004C0FE010E94000589
:100E10002196CE35D107C9F7F894FFCF0000D40151
:100E20008000000000009301F3002001E001510167
:100E30002F01430131003000330032000D0A000061
:107E0000112484B714BE81FFF0D085E080938100F7
:107E100082E08093C00088E18093C10086E0809377
:107E2000C20080E18093C4008EE0C9D0259A86E02C
:107E300020E33CEF91E0309385002093840096BBD3
:107E4000B09BFECF1D9AA8958150A9F7CC24DD24C4
:107E500088248394B5E0AB2EA1E19A2EF3E0BF2EE7
:107E6000A2D0813461F49FD0082FAFD0023811F036
:107E7000013811F484E001C083E08DD089C08234E0
:107E800011F484E103C0853419F485E0A6D080C0E4
:107E9000853579F488D0E82EFF2485D0082F10E0AE
:107EA000102F00270E291F29000F111F8ED06801E7
:107EB0006FC0863521F484E090D080E0DECF843638
:107EC00009F040C070D06FD0082F6DD080E0C81688
:107ED00080E7D80618F4F601B7BEE895C0E0D1E017
:107EE00062D089930C17E1F7F0E0CF16F0E7DF06D8
:107EF00018F0F601B7BEE89568D007B600FCFDCFD4
:107F0000A601A0E0B1E02C9130E011968C91119780
:107F100090E0982F8827822B932B1296FA010C0160
:107F200087BEE89511244E5F5F4FF1E0A038BF0790
:107F300051F7F601A7BEE89507B600FCFDCF97BE46
:107F4000E89526C08437B1F42ED02DD0F82E2BD052
:107F50003CD0F601EF2C8F010F5F1F4F84911BD097
:107F6000EA94F801C1F70894C11CD11CFA94CF0C13
:107F7000D11C0EC0853739F428D08EE10CD085E9AC
:107F80000AD08FE07ACF813511F488E018D01DD067
:107F900080E101D065CF982F8091C00085FFFCCF94
:107FA0009093C60008958091C00087FFFCCF809118
:107FB000C00084FD01C0A8958091C6000895E0E648
:107FC000F0E098E1908380830895EDDF803219F02E
:107FD00088E0F5DFFFCF84E1DECF1F93182FE3DFCA
:107FE0001150E9F7F2DF1F91089580E0E8DFEE27F6
:047FF000FF270994CA
:027FFE00040479
:00000001FF
