:100000000C9470000C9498000C9498000C94980038
:100010000C9498000C9498000C9498000C94980000
:100020000C9498000C9498000C9498000C949800F0
:100030000C9498000C9498000C9498000C949800E0
:100040000C94B5060C9498000C942E070C94080799
:100050000C9498000C9498000C9498000C949800C0
:100060000C9498000C9498005359533A417264755B
:10007000696E6F2073696170000000000024002722
:10008000002A0000000000250028002B00000000CE
:1000900000230026002900040404040404040402CC
:1000A000020202020203030303030302020301022A
:1000B00004081020408001020408102001020408F6
:1000C00010204080400000000900030200000405E9
:1000D000080000000000000000000000A8066607FD
:1000E00011241FBECFEFD8E0DEBFCDBF21E0A0E4DA
:1000F000B1E001C01D92A83FB207E1F711E0A0E016
:10010000B1E0E0ECF3E102C005900D92A034B1073C
:10011000D9F710E0CFE6D0E004C02197FE010E949D
:10012000D207CE36D107C9F70E94FF060C94D30937
:100130000C9400008430B1F060F08830C9F0893050
:10014000E9F0853069F4E0E8F0E080818F7D80831C
:1001500008958230C9F0833021F484B58F7D84BD49
:1001600008950895E0E8F0E080818F778083089516
:10017000E0EBF0E080818F7780830895E0EBF0E0A2
:1001800080818F7D8083089584B58F7784BD0895A5
:10019000CF93DF93282F30E0F901EB53FF4F849189
:1001A000F901E255FF4FD491F901E956FF4FC4918F
:1001B000CC23B1F081110EC0EC2FF0E0EE0FFF1F49
:1001C000E357FF4FA591B491EC91ED2331F490E00A
:1001D00080E008C00E949A00EFCF81E090E002C06A
:1001E00090E080E0DF91CF9108951F93CF93DF934C
:1001F000282F30E0F901EB53FF4F8491F901E255CC
:10020000FF4F1491F901E956FF4FC491CC23A9F097
:10021000D62F811116C0EC2FF0E0EE0FFF1FED5727
:10022000FF4FA591B4918FB7F894D1110DC09C9157
:10023000E12FE095E923EC938FBFDF91CF911F91E0
:1002400008950E949A00E7CFEC91E12BEC93F4CF54
:10025000CF93DF9390E0FC01E255FF4F2491895644
:100260009F4FFC018491882319F190E0880F991F1A
:10027000FC01E758FF4FA591B491FC01ED57FF4FEA
:10028000C591D491662349F06230A9F08FB7F894F4
:10029000EC91E22BEC938FBF0BC09FB7F8948C913D
:1002A000E22FE0958E238C938881E823E8839FBF1B
:1002B000DF91CF9108959FB7F8943C91822F80955C
:1002C00083238C93E881E22BE8839FBFF1CF78945E
:1002D00084B5836084BD85B5836085BDEEE6F0E0BE
:1002E000808181608083E1E8F0E082E0808380812A
:1002F00081608083E0E8F0E0808181608083E1EBD1
:10030000F0E0808184608083E0EBF0E080818160B8
:10031000808387E880937A001092C10008952FB7F8
:10032000F8946091F0017091F1018091F201909147
:10033000F3012FBF08950895DB0114964D915C9150
:1003400015976D917C91DC01ED91FC910280F38118
:10035000E02D09950895EF92FF920F931F93CF938D
:10036000DF938C01FB01D0E0C0E07F018FEFE81A42
:10037000F80A6491662369F0D801ED91FC9101902F
:10038000F081E02DC8010995892B19F02196F7011C
:10039000ECCFCE01DF91CF911F910F91FF90EF90A5
:1003A0000895CF92DF92EF92FF920F931F93CF9316
:1003B000DF938C01DB01D0E0C0E07A0181E0E81A34
:1003C000F108452BA1F0F80180819181FC01208189
:1003D00031816D01FFEFCF1ADF0A6C91C801F9017D
:1003E0000995892B21F02196A701D601E6CFCE01F0
:1003F000DF91CF911F910F91FF90EF90DF90CF9001
:100400000895019709F008956F3F7F4FE1F7EEE4FB
:10041000F1E01382128288EE93E0A0E0B0E08483E2
:100420009583A683B7838EE091E09183808385ECEA
:1004300090E09587848784EC90E09787868780ECAE
:1004400090E0918B808B81EC90E0938B828B82EC9F
:1004500090E0958B848B86EC90E0978B868B118E49
:10046000128E138E148ECFCFFC01938D848D98172E
:1004700020F4891B990B019708952FE330E0291B85
:100480003109820F932F911D0895FC01918D828D6A
:10049000981761F0A28DAE0FBF2FB11D5D968C91A4
:1004A000928D9F5F9F73928F90E008958FEF9FEFE3
:1004B0000895FC01918D828D981731F0828DE80F9F
:1004C000F11D858D90E008958FEF9FEF0895FC0159
:1004D000218D30E0205C3F4F828DA901481B5109DE
:1004E000CA018F73992708958EE491E00E946702F4
:1004F00021E0892B09F420E0822F0895CF92DF922A
:10050000EF92FF921F93CF93DF93EC016A017B017F
:10051000122F60E079E08DE390E0A70196010E9440
:10052000B007215031094109510956954795379532
:100530002795E889F98982E08083C11481EED80685
:10054000E104F10421F0211580E1380798F0E889F1
:10055000F989108260E874E88EE190E0A7019601C5
:100560000E94B0072150310941095109569547951C
:1005700037952795EC85FD853083EE85FF852083B3
:10058000188EEC89FD891083EA89FB89808188694E
:100590008083EA89FB8980818F7D8083DF91CF9181
:1005A0001F91FF90EF90DF90CF900895FC01A48DF4
:1005B000A80FB92FB11DA35ABF4F2C91848D90E085
:1005C00001968F739078848FA689B7892C93A08920
:1005D000B1898C91837080648C93938D848D9813F2
:1005E00008950288F389E02D80818F7D8083F8CF84
:1005F0000F931F93CF93DF93EC0181E0888F9B8D46
:100600008C8D9817B1F0062F8B8D90E001968F732B
:100610009078182F8C8D81131EC00FB607FCFACF6F
:10062000E889F989808185FFF5CFCE010E94D60245
:10063000F1CFE889F989808185FFE5CF9FB7F894EC
:10064000EE89FF896083E889F989808183708064FD
:1006500080839FBF10C0EB8DEC0FFD2FF11DE35A7F
:10066000FF4F00839FB7F8941B8FEA89FB89808135
:10067000806280839FBF81E090E0DF91CF911F91E6
:100680000F910895CF93DF93EC01888D811104C001
:100690000DC00FB607FE0DC0EA89FB89808185FD7C
:1006A000F8CFA889B9898C9186FFF3CFDF91CF91DC
:1006B0000895808185FFF0CFE889F989808185FFE1
:1006C000EBCFCE010E94D602E7CF80E090E0892BED
:1006D00021F00E947402811101C008950E9400005F
:1006E000FCCFCF92DF92EF92FF920F931F93CF93A5
:1006F000DF93DC01CD90DC901197C114D104D1F1CE
:100700001496CD91DC912097A9F17C018601F80126
:100710008081082E000C990B0E946D07892B19F01F
:100720000F5F1F4FF4CF2197CC0DDD1D8881082E60
:10073000000C990B0E946D07892B29F0C017D10777
:1007400010F02197F3CFAE014F5F5F4F401B510B6D
:10075000D70115965C934E931497C016D10698F066
:10076000D701ED91FC91119714968D919C91E80F12
:10077000F91F1082DF91CF911F910F91FF90EF90A1
:10078000DF90CF900895B801C6010E94BA09E8CF62
:10079000DC0114962D913C911597232B69F461157A
:1007A000710541F0FB018081882311F080E00895FC
:1007B00081E0089581E008956115710559F0FC010B
:1007C000808191810E94C30921E0892B09F020E0FA
:1007D000822F0895ED91FC91908181E09923C9F3D6
:1007E00080E00895DC01ED91FC910280F381E02D21
:1007F00042E050E06CE171E0099508950F931F937A
:10080000CF93DF93EC010E949C018C01CE010E94EA
:10081000F203800F911FDF91CF911F910F910895E7
:10082000CF93DF93EC0168E271E00E94C80381116D
:100830001FC06FE271E0CE010E94C80381111FC08A
:100840006FE171E0CE010E94C80381111DC061E219
:1008500071E0CE010E94C80381111BC08C819D8173
:10086000892B51F0BE018EE491E00E94FE0304C08A
:1008700061E08CE00E94F500DF91CF91089560E087
:100880008CE00E94F500F8CF61E08DE00E94F50059
:10089000F3CF60E08DE00E94F500EECF0F931F9341
:1008A000CF93DF93EC010E94AB018C01CE010E943B
:1008B000F203800F911FDF91CF911F910F91089547
:1008C00061E08CE00E94280161E08DE00E94280137
:1008D00062E087E00E94280162E088E00E9428012F
:1008E00060E08CE00E94F50060E08DE00E94F50081
:1008F00026E040E855E260E070E08EE491E00E947E
:100900007E0268E670E08EE491E00E944E04089555
:100910006115710581F0FB0101900020E9F7319725
:10092000AF01461B570BDC01ED91FC910280F38176
:10093000E02D0995089590E080E008950F931F93AE
:10094000CF93DF93EC010E9488048C01CE010E94BA
:10095000F203800F911FDF91CF911F910F910895A6
:100960000F931F93CF93DF93EC018B016F5F7F4F4A
:10097000888199810E94FD08009751F099838883AE
:100980001B830A8381E0DF91CF911F910F9108951E
:1009900080E0F9CFCF93DF93EC0128813981232BBD
:1009A00029F02A813B812617370770F4CE010E9477
:1009B000B004882351F08C819D81892B49F4E88112
:1009C000F981108281E001C081E0DF91CF9108952B
:1009D00081E0FBCFEF92FF920F931F93CF93DF93B2
:1009E000FC01C481D581C40FD51F6115710501F1CA
:1009F000452B41F481E0DF91CF911F910F91FF9042
:100A0000EF9008957B018C01BE010E94CA048823E7
:100A100091F3F8012081318184819581B701820FA2
:100A2000931F0E94CC09F801D583C48381E0E3CFF2
:100A300080E0E1CFCF93DF9300D0CDB7DEB76983FD
:100A40001A8241E050E0BE016F5F7F4F0E94EA04CE
:100A50000F900F90DF91CF910895CF93DF93EC012A
:100A600088819981009711F00E9474081982188278
:100A70001D821C821B821A82DF91CF910895EF9212
:100A8000FF920F931F93CF93DF93EC017B018A01B9
:100A9000BA010E94CA04882379F01D830C83B70130
:100AA000888199810E94CC09CE01DF91CF911F915D
:100AB0000F91FF90EF900895CE010E942D05F4CF85
:100AC000CF93DF93EC016115710571F0FB0101908B
:100AD0000020E9F73197AF01461B570B0E943F05F5
:100AE000CE01DF91CF9108950E942D05F9CFCF93CC
:100AF000DF93EC01FB018617970749F06081718154
:100B00006115710541F0448155810E943F05CE0178
:100B1000DF91CF9108950E942D05F9CFFC0111823C
:100B2000108213821282158214820E947705089522
:100B3000FC011182108213821282158214826115C7
:100B4000710551F0FB0101900020E9F73197AF01E9
:100B5000461B570B0E943F050895FC01808191813F
:100B6000009711F00E94740808950F931F93CF937C
:100B7000DF93EC018B01019751F0CD2B19F40F3F5E
:100B80001F4F79F0DF91CF911F910F9108956F3F23
:100B90007F4F99F76EE171E088E491E00E9498053B
:100BA000ECCF88E491E00E94AD05ECCFAF92BF920C
:100BB000CF92DF92EF92FF920F931F93CF93DF9329
:100BC00000D000D000D0CDB7DEB78EE491E00E9417
:100BD0006702181619060CF47DC087E00E94C80051
:100BE0005C0188E00E94C8008C010E948F016B01AB
:100BF0007C0180910201909103018A159B0549F1C6
:100C00008091440190914501A0914601B091470126
:100C1000A7019601281B390B4A0B5B0BDA01C901AE
:100C2000C397A105B105A8F0C0924401D092450137
:100C3000E0924601F0924701B0920301A0920201B6
:100C4000AB2809F077C063E271E08EE491E00E9486
:100C50009E0480910001909101018017910749F154
:100C60008091400190914101A0914201B0914301D6
:100C7000A7019601281B390B4A0B5B0BDA01C9014E
:100C8000C397A105B105A8F0C0924001D0924101DF
:100C9000E0924201F09243011093010100930001A0
:100CA000012B09F44EC068E371E08EE491E00E94EC
:100CB0009E0426960FB6F894DEBF0FBECDBFDF911F
:100CC000CF911F910F91FF90EF90DF90CF90BF9049
:100CD000AF9008958EE491E00E9445028A3089F039
:100CE0008D3009F47ACF20914C0130914D012034A0
:100CF000310508F072CF682F88E491E00E941A0550
:100D00006CCF88E491E00E94710368E471E0CE0149
:100D100001960E948E05CE0101960E941004CE011C
:100D200001960E94AD056EE171E088E491E00E94B9
:100D3000600553CF6AE271E08EE491E00E949E0468
:100D400088CF61E371E08EE491E00E949E04B1CF10
:100D50006FEF7FEF81E090E00E9401026FEF7FEF85
:100D600081E090E00E94B50508951F920F920FB6A2
:100D70000F9211242F933F938F939F93AF93BF9321
:100D80008091F0019091F101A091F201B091F301F5
:100D90003091EF0123E0230F2D3758F50196A11D67
:100DA000B11D2093EF018093F0019093F101A09386
:100DB000F201B093F3018091EB019091EC01A091CD
:100DC000ED01B091EE010196A11DB11D8093EB01E3
:100DD0009093EC01A093ED01B093EE01BF91AF9120
:100DE0009F918F913F912F910F900FBE0F901F9069
:100DF000189526E8230F0296A11DB11DD2CF0E949F
:100E000067010E9460040E94D6050E946503FBCF23
:100E10001F920F920FB60F9211242F933F934F936F
:100E20005F936F937F938F939F93AF93BF93EF9352
:100E3000FF938EE491E00E94D602FF91EF91BF9163
:100E4000AF919F918F917F916F915F914F913F9162
:100E50002F910F900FBE0F901F9018951F920F9219
:100E60000FB60F9211242F938F939F93AF93BF933D
:100E7000EF93FF93E0915E01F0915F01808182FD2D
:100E800014C0EEE4F1E0A689B7892C91818D8F5FC3
:100E90008F73928D891771F0DF01E18DF0E0E25BD5
:100EA000FE4F258F59968C9305C0E0916401F09117
:100EB00065018081FF91EF91BF91AF919F918F91DB
:100EC0002F910F900FBE0F901F9018956FEF7FEF2F
:100ED00090E080E00E94B505089591110C9476078A
:100EE000803219F089508550C8F7089599278827CE
:100EF00008952F923F924F925F926F927F928F92BE
:100F00009F92AF92BF92CF92DF92EF92FF920F9398
:100F10001F93CF93DF93CDB7DEB7CA1BDB0B0FB6A2
:100F2000F894DEBF0FBECDBF09942A88398848885F
:100F30005F846E847D848C849B84AA84B984C884F5
:100F4000DF80EE80FD800C811B81AA81B981CE0FEC
:100F5000D11D0FB6F894DEBF0FBECDBFED010895D1
:100F6000A1E21A2EAA1BBB1BFD010DC0AA1FBB1FAD
:100F7000EE1FFF1FA217B307E407F50720F0A21B1F
:100F8000B30BE40BF50B661F771F881F991F1A948C
:100F900069F760957095809590959B01AC01BD01B6
:100FA000CF010895EE0FFF1F0590F491E02D0994F5
:100FB0000F931F93CF93DF938230910510F482E05B
:100FC00090E0E091F601F091F70130E020E0B0E030
:100FD000A0E0309799F42115310509F44AC0281B87
:100FE000390B24303105D8F58A819B816115710553
:100FF00089F1FB0193838283FE0111C040815181FD
:101000000281138148175907E0F04817590799F4EE
:10101000109761F012960C93129713961C933296C8
:10102000CF01DF91CF911F910F9108950093F601A9
:101030001093F701F4CF2115310551F042175307F2
:1010400038F0A901DB019A01BD01DF01F801C1CF30
:10105000EF01F9CF9093F7018093F601CDCFFE0118
:10106000E20FF31F81939193225031093983288332
:10107000D7CF2091F4013091F501232B41F4209139
:101080000601309107013093F5012093F40120917E
:101090000401309105012115310541F42DB73EB70A
:1010A0004091080150910901241B350BE091F40196
:1010B000F091F501E217F307A0F42E1B3F0B281760
:1010C000390778F0AC014E5F5F4F2417350748F0C1
:1010D0004E0F5F1F5093F5014093F401819391935C
:1010E0009FCFF0E0E0E09CCFCF93DF930097E9F053
:1010F000FC01329713821282A091F601B091F701A0
:10110000ED0130E020E01097A1F420813181820FC1
:10111000931F2091F4013091F5012817390709F048
:1011200061C0F093F501E093F401DF91CF91089550
:10113000EA01CE17DF07E8F54A815B819E01411580
:101140005105B1F7E901FB83EA8349915991C40F35
:10115000D51FEC17FD0761F4808191810296840F01
:10116000951FE90199838883828193819B838A8378
:10117000F0E0E0E012968D919C9113970097B9F5FD
:101180002D913C911197CD010296820F931F2091D2
:10119000F4013091F5012817390739F6309751F5E8
:1011A0001092F7011092F601B093F501A093F401AB
:1011B000BCCFD383C28340815181840F951FC81750
:1011C000D90761F44E5F5F4F88819981480F591F9D
:1011D000518340838A819B819383828321153105CA
:1011E00009F0B0CFF093F701E093F6019ECFFD0137
:1011F000DC01C0CF13821282D7CFB0E0A0E0E3E0E1
:10120000F9E00C947B078C01009751F4CB010E940C
:10121000D8078C01C801CDB7DEB7E0E10C94970781
:10122000FC01E60FF71F9C0122503109E217F3077A
:1012300008F49DC0D901CD91DC911197C617D7074D
:1012400098F0C530D10530F3CE0104978617970783
:1012500008F3C61BD70B2297C193D1936D937C9350
:10126000CF010E947408D6CF5B01AC1ABD0A4C01B5
:101270008C0E9D1EA091F601B091F701512C412CCE
:10128000F12CE12C109731F58091F4019091F5014A
:101290008815990509F05CC04616570608F058C035
:1012A0008091040190910501009741F48DB79EB79C
:1012B0004091080150910901841B950BE817F9072B
:1012C00008F055C0F093F501E093F401F901718342
:1012D0006083A0CF8D919C91119712966C9012977C
:1012E00013967C901397A815B90559F56C0142E047
:1012F000C40ED11CCA14DB0420F1AC014A195B09ED
:10130000DA011296159780F06282738251834083CE
:10131000D9016D937C93E114F10471F0D701139618
:10132000FC93EE93129776CF22968C0F9D1FF901B6
:1013300091838083F301EFCFF093F701E093F601FF
:1013400069CF4816590608F42C017D01D3019ACFC4
:10135000CB010E94D8077C01009749F0AE01B8018B
:101360000E94BA09C8010E947408870153CF10E097
:1013700000E050CFFB01DC0102C001900D92415012
:101380005040D8F70895FB01DC018D910190801940
:101390000110D9F3990B0895FB01DC0101900D9226
:1013A0000020E1F7089510E0CFE6D0E004C0FE0190
:1013B0000E94D2072196C037D107C9F7F894FFCF12
:1013C000010001000000F801800000000000F802A8
:1013D000D101340242036702450259020D0A00336B
:1013E00000320042544E313A310042544E313A30CC
:1013F0000042544E323A310042544E323A300000EC
:00000001FF
